:10400000007F002065C900000DC8000061C90000E4
:1040100061C9000061C9000061C9000061C90000F8
:1040200000000000000000000000000061C9000066
:1040300061C900000000000061C9000061C9000002
:104040000000000000000000000000000000000070
:104050000000000000000000000000000000000060
:104060000000000000000000000000000000000050
:104070000000000000000000000000000000000040
:104080000000000000000000000000000000000030
:104090000000000000000000000000000000000020
:1040A0000000000000000000000000000000000010
:1040B0000000000000000000000000000000000000
:1040C00010B5054C237833B9044B13B10448AFF352
:1040D00000800123237010BD0801002000000000B3
:1040E000B83B010008B5034B1BB103490348AFF3CC
:1040F000008008BD000000000C010020B83B01005A
:10410000002070477047F8B506460C468F1800250A
:10411000BC4207D0336814F8011B1B68304698472F
:104120000544F5E72846F8BD38B500F10805D0F894
:10413000B4300446284698474FF6FD729042034635
:1041400013D8B4F8BA20B4F8B810284602F016F81C
:1041500094F89030032B08D8DFE803F002090F131E
:10416000B4F8B8301844A4F8B800012038BDB4F849
:10417000BA301844A4F8BA00F7E7B4F8B830181AFF
:10418000F1E7B4F8BA30181AF4E710B50446022083
:104190000AF0B8FE207003200AF0B4FE607004201C
:1041A0000AF0B0FEA07005200AF0ACFEE070062018
:1041B0000AF0A8FE2071204610BDFFFF054B10B588
:1041C0005C78003418BF0124214607200AF08EFED7
:1041D000204610BD580100201822002382600A22C8
:1041E0000370437043600373026103754375704746
:1041F0000378B3FA83F35B090370704730B1044B63
:10420000044A01280CBF1846104670470248704700
:10421000FA310100FF310100F531010010B504460B
:10422000214922480AF022FD2078FFF7E7FF0146E6
:104230001E480AF01BFD1E491C480AF017FD637852
:104240001A48032B96BF1B4A1B4952F823100AF049
:104250000DFD1A4915480AF009FD0A226168134844
:104260000AF066FD164911480AF000FD0A22A1680D
:104270000E480AF05DFD13490C480AF0F7FC237B59
:104280000A48032B96BF104A0B4952F823100AF034
:10429000EDFC0E4905480AF0E9FC0A2221690348B1
:1042A0000AF048FD012010BD073201003818002037
:1042B0000F32010064310100FF31010018320100AA
:1042C0002032010029320100743101003132010035
:1042D0004378022B04D900234370436001207047C8
:1042E000013343704368002BF8D10123F5E743689D
:1042F0000133082BC8BF0023436001207047836847
:1043000001331E2BC8BF1223836001207047037B3B
:104310000133042BA8BF0023037301207047FFFF64
:104320002DE9F34700F10806044630460F4601F038
:10433000E9FC4449304601F0C1FF0A22424B00210A
:10434000304601F07FFF4FF4C0134049C4F8B83045
:1043500020460AF08BFC7B78032B96BF3C4A3D49F4
:1043600052F8231020460AF081FC3B4BC4F8B830C9
:104370003A4920460AF07AFC0A22B96820460AF037
:10438000D7FC374920460AF071FC4FF41813C4F8E3
:10439000B830344920460AF069FC0A227968204680
:1043A0000AF0C6FC304920460AF060FC0A220821C7
:1043B00020460AF0D6FC2D4B2D49C4F8B8302046D3
:1043C0000AF054FC3B7B032B96BF2A4A214952F842
:1043D000231020460AF04AFC0025D7F804A0A8467E
:1043E0004FF00809C245CDF800904FF00A034FF096
:1043F0002C022946304619DD01F0F4FB08F10108D2
:104400000C35B8F1080FADB2ECD14FF48003C4F80D
:10441000B8307B78032B0CD1174920460AF026FCD4
:10442000304602B0BDE8F04701F076BC01F0FCFB7D
:10443000E4E7012B01D11149EFE7022B0CBF104932
:104440001049EAE7143301008431010012320100FF
:1044500064310100FF310100480018008E31010075
:10446000B83201001B3201009331010048002600E0
:104470002C3201007431010095310100A831010096
:10448000B5310100C231010003695A1C1E2AC8BFA0
:104490001E2202610069C01A18BF0120704703691B
:1044A0005A1E48BF002202610069C01A18BF0120CD
:1044B0007047FFFF2DE9F74300F108050446284641
:1044C0000E4601F01FFC28463049DFF8DC80304FF3
:1044D00001F0F4FE0A222F4B0021284601F0B2FE23
:1044E0004FF4C013C4F8B8302B4920460AF0BEFB85
:1044F000317D2046002914BF414639460AF0B6FBFB
:104500004FF41013C4F8B830244920460AF0AEFB2B
:104510000A22316920460AF00BFC214920460AF0A4
:10452000A5FB0A221E2120460AF01BFC082300934B
:10453000284664232A220021D6F8109001F074FB4B
:1045400062230093002319461E2248460AF062FAAD
:1045500006232B220093012183B2284601F042FB5F
:104560004FF47813C4F8B8300E4920460AF07EFBA9
:10457000717D2046002914BF414639460AF076FB7A
:10458000284603B0BDE8F04301F0C6BB1433010078
:10459000CD310100D1310100DB310100E5310100F5
:1045A00093310100EA310100A231010010B5064C3F
:1045B0000648237821461BB9FFF7B2FE207810BDCC
:1045C000FFF778FFFAE700BF5801002070010020D4
:1045D000062908B503D1FFF70BFE012008BD0278BC
:1045E0000239AAB903292BD8DFE801F002060A0E26
:1045F000BDE80840FFF76CBEBDE80840FFF777BE96
:10460000BDE80840FFF77BBEBDE80840FFF77FBE6E
:10461000032915D8DFE801F002070B0F027D82F0B5
:1046200001020275D9E7BDE80840FFF72DBFBDE8DC
:104630000840FFF734BF427D82F001024275CCE7AB
:104640000020CBE7437863B14368002B09DD072BDB
:1046500009DC013BA5205843072390FBF3F05A30B7
:10466000704700207047FF207047FFFF10B50548D6
:10467000FFF7E8FF0446014609200AF0F1F820465A
:1046800010BD00BF580100204FF00133036001232B
:10469000037100238360704730B584680D79141B63
:1046A0009C422CD90379012B00D105B304780B78F7
:1046B000012C00D1EBB144784B78012C00D1D3B15F
:1046C00084788B78012C00D1BBB1C378012B16D133
:1046D000CB78A3B9052382600A7802704A784270C9
:1046E0008A788270CA78C2700571184630BD062378
:1046F000F1E70223EFE70323EDE70423EBE70023D1
:10470000EAE7FFFF07B56846FFF73FFD0AF052FDF5
:104710003C23024669460348FFF7BEFF03B05DF83D
:1047200004FB00BF440100204278037853408278A4
:104730005340C278534002795340427980795340C4
:104740005840704708B50146FFF7EEFFCB791B1ABA
:104750005842584108BD03780B7043784B708378FA
:104760008B70C378CB7003790B7143794B7183796C
:104770008B71C379CB7170470A7802704A784270A6
:104780008A788270CA78C2700A7902714A79427155
:104790008A798271CA79C27170474B1E0A2B29D857
:1047A000DFE803F0060D1113151B1E20222426003E
:1047B0004378003318BF01231370084670474368DD
:1047C00013700121F9E78368FAE7037BF8E7437880
:1047D000012B14BF00230123F2E74378032BF8E7F2
:1047E0000023EDE70378EBE7037DE9E70369E7E7FB
:1047F000437DE5E700211170DFE78278531E0A2B25
:1048000018D8023AC378082A10D8DFE802F0050A5F
:104810000D0F0F0F0F0F1100082B8CBF042000206D
:104820007047123B0C2BF8E7032BF6E7012BF4E75C
:104830001E2BF2E70320704738B5044608460D46A4
:10484000FFF7DBFF002869D1AB78013B0A2B17D8B3
:10485000DFE803F00617232A2F3C464C51585D0031
:10486000EB78012B0CD823B900236370636001201F
:1048700006E06378002BFAD10323637001206060A7
:1048800038BDEB78082BFBD863600BB96370EEE79B
:104890006378002BEBD10323F8E7EB78A3F1120246
:1048A0000C2AEDD8A360E2E7EB78032BE8D823735A
:1048B000DDE7EB78012BE3D804D163706368002B4C
:1048C000D5D1DBE76378012BD1D1E4E7EB78012B7D
:1048D000D6D801D10323F0E76378032BC7D1C3E710
:1048E000E87801288CBF00200120C9E7EB78012B74
:1048F000C6D82370BBE7EB78012BC1D803F00103C6
:104900002375B4E7EB781E2BBAD82361AFE7EB78B9
:10491000012BB5D803F001036375A8E70020AFE7CA
:104920008378013B0A2B8CBF03200020704710B511
:1049300004460846FFF7F4FF28B920468978BDE809
:104940001040FFF72ABF0020107010BD2DE9F04184
:1049500080468CB008460C461646FFF7F3FE054627
:10496000E0B9E278A379A1788DF8032040F62270AF
:10497000ADF80000012268468DF806308DF802106F
:10498000ADF80420FFF7D0FE6B468DF8070003CB8F
:104990003060716028460CB0BDE8F0812378202B90
:1049A0003BD12046FFF729FF0546C0B140F62270F3
:1049B000A379A178E278ADF808008DF80C5002A830
:1049C00000258DF80E308DF80A108DF80B208DF82B
:1049D0000D50FFF7A9FE02AB8DF80F00D7E7214677
:1049E0004046FFF729FF40F22220A379A178E27820
:1049F000ADF8100004A88DF816308DF812108DF85F
:104A00001320ADF81450FFF78FFE04AB8DF817009C
:104A100003CB012530607160BCE7302B3BD1002512
:104A200020468DF82850FFF77BFF0746B8B140F6C7
:104A30003270A379A178E278ADF8180006A88DF855
:104A40001E308DF81A108DF81B208DF81C708DF813
:104A50001D50FFF769FE06AB8DF81F0097E70AAA05
:104A600021464046FFF763FF40F23220A379A17848
:104A70009DF82820ADF8200008A88DF826308DF884
:104A800022108DF82320ADF82470FFF74DFE08ABFF
:104A90008DF82700BCE7E278A178A3798DF82B2068
:104AA00040F62270ADF8280002220AA88DF82A10DC
:104AB0008DF82E30ADF82C20FFF736FE0AAB8DF8BE
:104AC0002F0003CB00253060716063E7F7B5164611
:104AD00002AA0025044602F8015D084631461F4639
:104AE000FFF75BFEA84214BF2A460F229DF807304D
:104AF0006270322120462170A670E37025716571C5
:104B0000A771FFF711FEE071204603B0F0BDFFFF73
:104B10002DE9F8430C4605461F4920481F4FDFF892
:104B20008C80DFF88C900AF0A1F829461B480AF027
:104B30009DF81B4919480AF099F810222188174856
:104B40000AF0F6F8174915480AF090F80A22A178F9
:104B500012480AF006F9144910480AF087F80026AE
:104B6000A378F5B2AB4212D9254441460B480AF06E
:104B70007DF8ED780F2D03D8494638460AF076F8CF
:104B80001022294638460AF0ECF80136E8E70348D7
:104B9000BDE8F8430AF072B88132010038180020ED
:104BA000863201008D32010093320100843201000F
:104BB0009A32010030B589B0014601AD01A802F07A
:104BC00069FF0FCD0E4C0FC495E8070003C40D4DCF
:104BD0002046002320F818292B70032101230D22E1
:104BE00002F06AFF014610B1002009B030BDA4F107
:104BF000180002F0E8FC0028F6D101202870F4E744
:104C0000240100204001002010B50A20FFF7D2FF48
:104C10000749044607480AF029F8074B07490548A1
:104C2000002C08BF19460AF039F8204610BD00BF15
:104C30009C320100381800207C320100A2310100B2
:104C400030B5104B0146187885B0B0B18B78082B81
:104C500015D8CC1C002202A8D5B2AB4204D914F856
:104C6000015B85540132F7E709880090002206486D
:104C700002F08BFFB0FA80F0400905B030BD002093
:104C8000FBE700BF40010020240100201FB50B46B8
:104C90000822ADF804000DF1070118468DF8062032
:104CA000FFF759FD01A90448FFF732FF01A8FFF7FC
:104CB000C7FF05B05DF804FBF231010007B5084AF3
:104CC0001378591C1170024606496846FFF7FEFE2C
:104CD00069464FF44070FFF7D9FF03B05DF804FB5D
:104CE000500100205801002037B5144600230D461E
:104CF0000DF1060221468DF806308DF80730FFF7DA
:104D00004CFD10B9002003B030BD0DF10702214663
:104D10002846FFF742FD0028F4D09DF806209DF8B4
:104D200007309A42EED02046FFF7C8FFEBE770B598
:104D3000012205460E46FFF7D7FF31460446022200
:104D40002846FFF7D1FF3146044403222846FFF7E7
:104D5000CBFFE4B23146044404222846FFF7C4FFE7
:104D6000E4B23146044405222846FFF7BDFFE4B211
:104D70003146044406222846FFF7B6FFE4B2314626
:104D8000044408222846FFF7AFFFE4B2314604444A
:104D900009222846FFF7A8FFE4B2314604440A225C
:104DA0002846FFF7A1FFE4B204440B22314628460F
:104DB000FFF79AFFE4B22044C0B270BD7FB5174B35
:104DC0001B78054613B9002004B070BD144802F0EA
:104DD0002DFF0328F7D102AE002433460DF1030264
:104DE00001A90F4801948DF8034002F0FBFE002852
:104DF000E9D1019BC3F30A032B809DF80330082BF4
:104E000028BF0823AB700335C2B2934204D9325C89
:104E100005F8012B0130F7E70120D5E7400100201C
:104E20002401002030B58FB005A8FFF7C7FF044666
:104E300068B105A91D48FFF76BFEBDF81430B3F546
:104E4000807F07D01A491B4809F028FF002420461C
:104E50000FB030BD9DF81630082B01D01649F2E78F
:104E6000164C0DF1170101A8FFF786FC0FCC08AD19
:104E70000FC594E8030003AA85E8030001A9A4F183
:104E80001000FFF763FD03A9044640F20110FFF78D
:104E9000FDFE18B90A49074809F000FF002CD6D0DA
:104EA000064908A8FFF743FFD1E700BF3C320100E5
:104EB0003F3201003818002055320100580100200F
:104EC0006C32010070B586B0FFF71CFC0646B0B12D
:104ED000174C0FCC6D460FC594E8030085E803001E
:104EE0003146A4F11000FFF773FB40B1A4F11000AC
:104EF000FFF794F9A4F110016846FFF718FFFFF7D8
:104F000091FF10B10A48FFF789F90A4CFFF756F9EB
:104F1000FFF7ACFB0AF04EF92368C01A642804D9E5
:104F2000FFF744FB0AF046F9206006B070BD00BFF1
:104F3000580100205401002038B5104C104A22605E
:104F400004F108050F4A00232846C4E92D236360B5
:104F500001F052FB0C4B236028460C4B0C4A0D49C8
:104F600000F032FFFF23194628461A4600F0FEFDE6
:104F70000A210948BDE8384002F08CBD70010020CC
:104F80003C310100E965000054310100995A0000EC
:104F90007D5B0000E036010024010020022170B595
:104FA000084609F08BFF0221032009F087FF022148
:104FB000042009F083FF0221052009F07FFF022170
:104FC000062009F07BFF0121072009F077FF01216E
:104FD000092009F073FF0021072009F087FF184C12
:104FE000184E194D0021092009F03AFC4FF41651D2
:104FF00016480CF0D2FC204600F034FC3146204626
:1050000005F1080400F042F9204601F0C0FC2046FA
:1050100000F0C4FE20460E4C002101F0C1FC2E62BF
:10502000FFF7F2FD2046FFF7D7F80A48FFF72CFB01
:10503000FFF7BCFA2046BDE87040FFF7EFB800BFAD
:105040002C020020A08601007001002038180020EA
:1050500058010020440100204309012200F01F00F4
:1050600002FA00F02033044A42F82300BFF34F8FC6
:10507000BFF36F8F704700BF00E100E003681B784B
:10508000092B0BD80A4A52F823303BB11A7F2AB1B8
:105090000279012A03D1032283F82E207047022AC5
:1050A00001D10122F8E7032AF8D10222F4E700BF78
:1050B0008006002003681B78022B0BD80A4A52F89E
:1050C00023303BB11A7F2AB10279012A03D103228E
:1050D00083F82E207047022A01D10122F8E7032A23
:1050E000F8D10222F4E700BF740600200368012112
:1050F0001B6B184710B403689C6B0123A4465DF832
:10510000044B604707B5037F8DF8071063B1437FF9
:10511000C3B190F82C309BB1D0F83834FE2B07D9AE
:10512000012380F82D304360002003B05DF804FBBC
:10513000C2189DF8071082F833120133C0F83834D2
:105140000120F2E7D0F82831002BF9D001220DF12F
:105150000701A4309847F3E7C0F840147047C0F83F
:105160004414704790F83C34D0F83404C01A7047A7
:1051700090F83C34D0F834148B4202463FBFC1183B
:10518000013391F8320382F83C3428BF4FF0FF30EE
:10519000704790F83C34D0F8342493423ABFC0189A
:1051A00090F832034FF0FF30704790F82E30022B0A
:1051B00003D090F82E30032BF7D1704738B5037F1A
:1051C0000446CBB1437F4BB3D0F81C31A3B190F967
:1051D0008B00FFF741FF94F98A00FFF73DFF94F938
:1051E0008C00FFF739FF94F98D00FFF735FFD4F8F5
:1051F0001C3104F13C009847A369154D102235F885
:105200003310002005F006F86369102235F83310DA
:10521000002004F0FFFF0023237738BDD0F83031A1
:10522000002BE9D090F9E500FFF716FF94F9E400B0
:10523000FFF712FF94F9E600FFF70EFF94F9E7007D
:10524000FFF70AFFD4F8303104F1A400D3E700BF20
:1052500008390100F8B5037F04460D46164693B1A0
:10526000437F4BB18F18BD420BD0236815F8011B4B
:105270001B6820469847F6E7D0F828310BB1A430D8
:1052800098473046F8BD1E46FBE7FFFF38B5037F61
:1052900004460D4633B1437F23B1D0F81C310BB126
:1052A0003C309847637FDBB1294BC4F880501A6AC1
:1052B00094F824305BB327490F23002284F833305D
:1052C0008D424FF0010384F8312084F8343015D139
:1052D0000E2384F83030FF2384F8323084F82F20F6
:1052E000237F53B1D4F800313BB104F17C0104F1C8
:1052F0003C00984708B10023237738BD022284F888
:105300003020CC2284F8322084F82F30E8E7124B8A
:105310001B68C2F302618B400E49C2F302328D4218
:1053200023FA02F30D4AB3FBF2F303F1FF3208D084
:105330000B4B9D42D4D141F20F03238784F83720D1
:10534000CEE741F61A320133228784F83730C7E7B7
:1053500000E00140A08601005C0C0020006CDC0233
:10536000801A060017B4D0F8243101914BB10169BD
:10537000019A00F59A742144A43003B05DF8044BFF
:105380001847012003B05DF8044B70477FB54368B0
:10539000019303681A78022A46D81A783B4B53F8CF
:1053A0002240002C40D0237F002B3DD0037A012BDC
:1053B00003D1032384F82E3036E0022B1DD10123C4
:1053C00084F82E30019E04F59A753246294604F27F
:1053D00032300DF04FFD0021C4F83464216184F8AF
:1053E0003C14FF2228460DF050FDD4F84034DBB1C8
:1053F000019804B0BDE870401847032B01D1022387
:10540000D8E7042B12D184F82E302369019A134473
:10541000FE2B2DD801212046FFF7A4FF0290029B0E
:1054200013B923690133236104B070BD052B09D181
:1054300084F82E30D4F84434002BF5D004B0BDE805
:1054400070401847062B18D1042384F82E302369A6
:10545000019A1344FE2B0BD801992046FFF782FFD7
:105460000390039B002BDFD1019A23691344DAE7F1
:1054700000212046FFF776FFD6E7072B01D1052351
:10548000D6E7082BD0D1062394E700BF740600208E
:1054900070B580F82530234B836200259DF81030CD
:1054A00080F83D344FF47A76DF23C0E90156C0E935
:1054B00005121D4E0660012205610577427780F8CE
:1054C000245080F82C5080F82D50C0F80051C0F8BE
:1054D0000451C0F80851C0F80C51C0F81051C0F880
:1054E0001451C0F81851C0F81C51C0F82051C0F830
:1054F0002451C0F82851C0F82C51C0F83051C0F8E0
:105500003454C0F8385480F88A3080F88B3080F8F2
:105510008C3080F88D3080F8E43080F8E53080F809
:10552000E63070BDA0860100CC3201002DE9FF41BC
:105530004369002B044603DA002004B0BDE8F08183
:105540008269002AF8DB8B42F6DA8A42F4DAD9B2B1
:105550000222684602AE0CF055FD30460322217E41
:105560000CF050FD00203DF8101000258B1109B300
:1055700036F81520F2B183EA9217FF061AD181EAB4
:105580000207FF0716D403F01F0312F00100236285
:1055900017D1022BD0DCA3691D4D84F8240035F807
:1055A00033101C4A1C4804F035FE6369194A35F86B
:1055B000331028E00135032DD9D101300328D2D191
:1055C000BAE7092BB8DC12F4F04FA369134F104E61
:1055D00011484FF0010584F824500CBF4FF0806251
:1055E0004FF0A0623A4311F4F04F36F833100CBF7D
:1055F0004FF080684FF0A06804F00CFE636936F845
:10560000331048EA0702044804F004FE012094E73E
:1056100008390100100401073019002010000100B2
:1056200073B501250577044602F00EFB01462046BE
:10563000FFF77CFF237F18402077002800F092803E
:10564000637F002B00F0898023686B499B6A2046AA
:10565000984794F82430226A002B57D0674B43F8C0
:105660002240674BC4F80031664BC4F80431664BE6
:10567000C4F80831654BC4F80C31654BC4F81031DF
:10568000644BC4F81431644BC4F81831634BC4F84C
:105690001C3104F12F03C4F8A030614BC4F89830DA
:1056A000236A554A84F87C300023C4E9202394F807
:1056B0002520C4E924339A4204F17C030CBF012263
:1056C0000222C4F89C300C2384F8882084F88930A6
:1056D000637F04F17C0604F1D80500960195002B48
:1056E0007BD094F82430002B72D007F0D5FD6A46A9
:1056F000062107F0CDFF237F1840D4F80031207732
:10570000314604F13C00984750BB2BE0454984F8F2
:10571000355041F82240444AC4F80021434AC4F8B5
:105720000421434AC4F80821424AC4F80C21424AE1
:10573000C4F81021414AC4F81421414AC4F8182180
:10574000404AC4F81C2104F13502C4F8A0203E4AA6
:10575000C4F8982084F83630A2E794F824301BB1BE
:105760000023237702B070BD226A2E4984F8D82026
:1057700041F82240204AC4F8DC20B4F8F820A4F80C
:10578000E02094F825203149C4F82011002A30493E
:10579000C4F824110CBF012202222E4984F8E22011
:1057A00040F60C42C4F82811A4F8E8202A492B4AF4
:1057B000C4F82C11C4F8EC202949C4F8301104F1C4
:1057C000D80284F8E33084F8EA30C4E93C237FE768
:1057D00007F062FD6A4605218BE707F05DFD0721B2
:1057E0006A4607F055FF237F18402077D4F8203110
:1057F000294604F1A40086E7A08601008006002067
:105800006D9B00007D9A000091990000A198000016
:10581000C1980000C9980000D5980000ED980000DC
:105820007D5000007406002075AD00008DAB0000B7
:10583000C1AB0000F1AD00004DAA000055AA000068
:1058400061AA00003DAE0000B5500000B1A4000008
:10585000BDA20000F5A2000029A300008D530000A6
:1058600035A3000010B5036804465B6A984701231E
:1058700063772046BDE81040FFF7D2BE38B5036815
:1058800004465B6A0D46984700236377A4F8F850F6
:105890002046BDE83840FFF7C3BEFFF7EFBF2DE954
:1058A000F0471E46037F044692463BB3D0F81031C2
:1058B00063B300F13C0990F88820484698470546B4
:1058C00068B9D4F8047157B19DF8243084F82E00DB
:1058D00083F00103324651464846B847054609F071
:1058E0006FFC804609F06CFC089BA0EB0800984216
:1058F00004D294F82E300BB9002DF3D094F82E304A
:10590000012B0CBF30460020BDE8F0870125E6E7FB
:105910002DE9F0479A46037F089F04469146002BE5
:1059200039D0D0F8103123B300F13C0890F888202A
:1059300040469847054668B9D4F8086156B19DF8C5
:10594000243084F82E0083F0010352464946404635
:10595000B047054609F034FC064609F031FC801BCF
:10596000874208D994F82E302BB9002DF5D00420A9
:105970000FE00125EEE7002DF9D194F82D3063B941
:1059800094F82E305BB194F82E30032B14BF002016
:105990000220BDE8F0870620FBE70120F9E705209B
:1059A000F7E737B590F8FC5090F838340191826AE7
:1059B0000092294600F233220446FFF7A9FF002394
:1059C00084F82C3003B030BD037F4BB1002301229B
:1059D00080F82D30C0F8FC1080F82C20C0F8383446
:1059E0007047FFF7F1BFFFF7EFBF2DE9F341164610
:1059F000027F9DF8205004460F469846002A31D079
:105A0000B5B10368DB6A9847032D28BF0325013D24
:105A1000EDB2FF2D236807D0E90028FA01F11B68D9
:105A2000C9B220469847F2E71B6B002120469847F1
:105A30009DF82430FF2E28BFFF26003318BF012316
:105A40000193A36A009304F23232F3B2394620463E
:105A5000FFF725FF0023C4F8340484F83C3402B077
:105A6000BDE8F0811046FAE707B5019300230093E3
:105A7000FFF7BBFF03B05DF804FBFFFF07B5002392
:105A80000093122213210348FFF702FD03B05DF8D3
:105A900004FB00BF2C0200202B2970B504461546DC
:105AA00013D82A2936D2282925D0292942D03F299E
:105AB0005AD901F03F01631893F82C60FF2E29D0CA
:105AC0000F2944D82946304612E02D2936D02BD351
:105AD000A1F14C03012BEAD801F03F010C44012154
:105AE00094F82C007ABB09F0E9F9294694F82C00C7
:105AF00009F0FCF90EE02C34002514F8010BFF2806
:105B000005D00F2D4FF0010106D809F0D7F9013566
:105B1000162DF2D1012070BD09F0D0F9012114F841
:105B2000010C09F0E3F9F2E7101C18BF012009F09D
:105B3000F9FAEFE7104609F0F9FAEBE7022A8CBF11
:105B400002200520F3E709F0B9F90121CEE7102979
:105B500001D109F0EAFA304609F0D4F9003018BF53
:105B6000012084F82700D5E70020D4E780F837101B
:105B700080F8382080F839307047FFFF143910B5AD
:105B800004460C2928D8DFE801F00D272707182341
:105B90002727272727270B0019461048FFF75AFB0E
:105BA000012010BDA36923B923685A7B0C4B5343D2
:105BB000A3610A48FFF756FEF2E7A1690748FFF71D
:105BC00065FB94F8241005484908FFF70CFFE7E748
:105BD0000248FFF78BFAE3E70020E2E72C020020FF
:105BE000A08601002DE9F743BDF8285015441F4653
:105BF000ADB2CB1800959BB280460E46144600F01D
:105C0000EFFB18B14FF00009A54202D103B0BDE887
:105C1000F0832246CDF800903B46314640460134A1
:105C200000F067FBA4B2EFE72DE9F347BDF8284089
:105C300001EB0309984613199BB21FFA89F90093E7
:105C40004B4606460F46154600F0CAFB78B30023C4
:105C500000932A4643463946304600F04AFB012C61
:105C600025D9023C0135A4B2ADB2ACB14FF0010A66
:105C70002A46234639463046CDF800A000F039FBCD
:105C800009F1FF312A46CDF800A0234689B23046FB
:105C900000F02FFB2544ADB200230A932A46434669
:105CA0003946304602B0BDE8F04700F022BB02B0F2
:105CB000BDE8F0872DE9F743036890F8509090F81D
:105CC000517093F81180054600262B681B7CB1B2F9
:105CD000D80010FB01F1E86CF4B289B201443A1922
:105CE00001340091D2B200212846E4B200F035FE22
:105CF000A14504D90136BB19DBB29845E5D803B0FC
:105D0000BDE8F08303681A7C90F85030C06CDB006B
:105D10005A4300210DF0B9B810B50446FFF7CAFF89
:105D20002046BDE8104000F044BE10B5836C80F8FA
:105D3000511004461B689847A36C20465B68BDE879
:105D40001040184710B590F8AB3004460BB1FFF780
:105D5000D9FF20460021BDE81040FFF7E6BF38B567
:105D60000446FFF7A7FF94F8515094F850102368A9
:105D70000D445B7CEDB2AB4204D8204600F019FE26
:105D8000002038BD94F8AB3013B12046FFF7BAFFBE
:105D900020462946FFF7C9FF0120F2E710B5044667
:105DA000FFF7D0FF2046FFF7DAFF01460028F9D1C0
:105DB0002046BDE81040FFF7B8BFFFFF082303707F
:105DC00000487047A806002030B585B00D46009306
:105DD00009491346094A044600F01AFE0DF10F0066
:105DE000FFF7ECFF9DF80F2000950146044B20467D
:105DF00000F0D8FB05B030BDB96800003167000085
:105E0000116400004218435C507800EB032080B21C
:105E100070470020704738B50B7803704B7843709B
:105E20008B788370CB78C3700B7903714B79437196
:105E30008B798371CB79C3710B7A03724B7A43727E
:105E40008B7A8372CB7AC3720B7B03734B7B437366
:105E50008B7B8373CB7BC3730D460B7C037404462F
:105E600011212846FFF7CEFF132160822846FFF755
:105E7000C9FF1521A0822846FFF7C4FFE08238BD84
:105E800070B5047B066862183378D2B2072A43FAE9
:105E900004F507D8EBB202734FF0FF30884023EAD5
:105EA000000070BD731C03607378C4F10804E4B291
:105EB000A3402B43083ADBB2D2B2ECE738B500235B
:105EC00000F17805044680F88430816790F89010DE
:105ED0002846FFF7D5FF94F8911084F882002846F1
:105EE000FFF7CEFF94F8AA3084F88630B3FA83F334
:105EF0005B0984F8830084F8873038BD10B5FFF75C
:105F0000BFFF4C1EE4B20123A340C01A40B210BD33
:105F1000012B07D003D3022B06D0401A00E0104417
:105F200080B270470844FBE7801AF9E7012B07D0DD
:105F300003D3022B06D0104400E0084480B270471F
:105F4000801AFBE7401AF9E72DE9F04F87B090F887
:105F5000808090F88170059204460E4694F8825035
:105F600094F88890B4F87C00A5EB0805EDB2AE4239
:105F7000334628BF2B4602934FFA88FAB4F87E3096
:105F800004934FFA87FB4B465A465146FFF7CEFF24
:105F900003900498FFF7BCFF059B02469BB194F861
:105FA000863084F8AA30CDF80090DDE90231204631
:105FB00000F09FF9AE420DD3761B0137F6B2FFB267
:105FC0004FF00008CAE794F88530002BF2D194F81E
:105FD0008730E6E7464484F8806084F881B007B0F3
:105FE000BDE8F08F2DE9F04F044685B000F1780947
:105FF000FFF764FF94F8921094F983804846FFF706
:106000007DFF94F8931083464846FFF777FF94F896
:10601000941007464846FFF771FF94F982500390A9
:10602000002D4EDD47447F4294F888A0B4F87C00F0
:106030007FB253463A465946FFF778FFA4F87C00F2
:106040000646B4F87E00FFF763FFA4F87E00BAF1BD
:10605000030F59D8DFE80AF00239424E731900EBFA
:1060600008059BB2A9B2009102463146204600F0D5
:10607000B7F930B30023A4F8803094F88E10484666
:10608000FFF7FEFE94F88F1006464846FFF7F8FE2D
:106090000546002231462046FFF756FF2946204696
:1060A0000122FFF751FF01214846FFF7E9FE0028D2
:1060B000EFD194F981304345DFDB94F8863084F8E2
:1060C000AA30039805B0BDE8F08FC8F10102324450
:1060D00005440136B3B2A9B296B2C4E7C5F10105D1
:1060E0007219C8F10105411C01360544B3B289B2E9
:1060F000A8B2F1E7C5F10105411C06EB0803054410
:106100009BB289B2A8B2AEE701463346ABE7036F54
:10611000FF2970B503F117030D4612D8602909D97C
:10612000B0F8A0201344587818B11A78AA4206D1C2
:10613000981C70BD4029F6D9B0F89E20F2E70344C0
:10614000F1E7B0F8A2401C44264600213046FFF794
:1061500059FE022104443046FFF754FE854206F101
:106160000406F2D8208840BA80B20028E1D08542E7
:1061700001D1E01CDDE7A3781C44F3E7F8B51F4626
:1061800090F8883004460E461546032B07D8DFE802
:1061900003F002151A1E436F98470544ADB2A4F8E8
:1061A0007C60A4F87E5039462046FFF7B0FF20B14E
:1061B00001462046FFF716FF80B2F8BD436F9847AF
:1061C000361AB6B2EBE7436F98472D1AE6E7436FEE
:1061D00098470644F5E72DE9F0471E4607460C466A
:1061E000154600F009FA013E4FF0000A4FF6FF781D
:1061F0004FF6FE797B6816F8011F384698474045F0
:1062000003461BD04845F5D02A4621463846FFF7BD
:10621000B5FF97F88830032B05D8DFE803F00208B4
:106220000B0D0444A4B250441FFA80FAE2E705447F
:10623000ADB2F8E7241AF5E72D1AF9E75046BDE8A4
:10624000F087FFFF10B4034C44605DF8044BFFF788
:10625000C2BF00BFE9650000036F10B5C3B190F87D
:10626000A53090F9994090F99A1080F8A64080F8EE
:10627000A7106BB1012B0CD190F99B309C42B8BF99
:1062800080F8A63090F99C30994201DD80F8A73063
:1062900010BD90F9982090F9963013449C42B8BFF5
:1062A00080F8A6309142C8BF80F8A720F0E7FFFF32
:1062B000014B4367704700BF135E0000026F8A42C4
:1062C00010B5044608D021678C30FFF7A4FD2046A6
:1062D000BDE81040FFF7C0BF10BD70B4B0F8564025
:1062E0009DF80C600396121B446C92B2A44670BCDD
:1062F000604770B490F8A4409DF80C50002C3AD040
:10630000002B38D0012B04D9022D2BD10131C91A11
:1063100089B215F0010530D1B0F8644094422AD812
:10632000B0F86640944226D90B449BB28B42B0F839
:106330006060B0F862401CD28C4219D9631E9BB2D7
:106340009E4218D2B14238BF31469C4294BFC1EB45
:106350000404C1EB0304A3B2846C0395A468A446AF
:1063600070BC6047032D02BF0132D21A92B2D0E74F
:1063700031468C42E4D870BC7047B0F860408C4223
:10638000F9D8B0F862408C42F5D913449BB29342DD
:10639000B0F86460B0F8664010D294420DD9631E24
:1063A0009BB29E42E7D2B24238BF32469C4294BF73
:1063B000C2EB0404C2EB0304CDE732469442DAD9BF
:1063C000EFE78A4206D2834208D89A4294BF00205F
:1063D000012070478342F8D80020704701207047A1
:1063E00070B504460D461E46B0F86610BDF8103074
:1063F000B0F86400FFF7E5FF48B133462A46B4F829
:106400006210B4F86000BDE87040FFF7DABF70BDFD
:10641000F0B590F8AA509DF8146002F00707012427
:10642000BC40012DE4B21AD825461AD022F007024A
:106430001FFA82FE0268127C12FB0EF292B2114425
:10644000C26C11447EB9013B9BB201330B440A7804
:106450002A43624001F8012B9942F8D1F0BD002592
:10646000E4E70024E2E70A7801372A436240013B6F
:1064700017F007070A709BB20CD1B0F852201144F4
:1064800090F8AA20012A0AD80BD001242546002B17
:10649000E9D1E3E76D006400EDB2E4B2F7E701246F
:1064A000F5E71546F3E7F0B590F85040026890F82C
:1064B0005170A5B2EB00A0F85430137CBEB2DB00E3
:1064C000A0F85230F300A0F85630517CA0F85830B4
:1064D0003C448C42C4BF891B8DB203EBC503A0F8BA
:1064E0005A30938AA0F85C30D38AA0F85E30F0BDB1
:1064F000FFF7D9BF10B49DF8044001945DF8044B38
:10650000FFF7EBBE37B5B0F86E50B0F86A30B0F8B0
:106510006C20B0F8681000950446FFF761FF18B9C9
:1065200084F8A40003B030BD0123B4F8602084F8DF
:10653000A430B4F868309A4238BFA4F86030B4F898
:106540006220B4F86A309A4288BFA4F86230B4F886
:106550006420B4F86C309A4238BFA4F86430B4F8C0
:106560006620B4F86E309A4288BFA4F86630D9E746
:106570000022A0F86020B0F85C20A0F86220B0F8FB
:106580005820A0F86420B0F85A20A0F86620FFF741
:10659000B9BFFFFF024A836CC0E91A225B68184743
:1065A0000000FFFF70B5049E43640025012380F8BE
:1065B000502080F8515080F8855080F8A95080F81C
:1065C000A55080F8AA3080F8AB300446C164336827
:1065D0000567866498472046FFF7DCFF2046FFF7F3
:1065E00067FE84F8885070BD19B10A2901D088B2BD
:1065F00070474FF6FF707047002380F826307047D1
:1066000010B404691346A4460A465DF8044B1721EA
:10661000604707B502AA02F8011D0121FFF7F0FF4C
:1066200003B05DF804FB10B404690023A4461A46C5
:1066300018215DF8044B604710B404690023A44698
:106640001A4619215DF8044B6047F8B50446174611
:106650000E46FFF7E8FF40212046FFF7DAFF2569E5
:106660003B46324620461721A8472046BDE8F84061
:10667000FFF7E2BF10B4C4680A46A4460023152100
:106680005DF8044B604710B4C4680A46A446002372
:1066900016215DF8044B604710B4C4681346A44645
:1066A0000A465DF8044B1721604710B4C468002304
:1066B000A4461A4618215DF8044B604710B4C4681C
:1066C0000023A4461A4619215DF8044B604773B5B0
:1066D00005460C462178172919D003D815290DD263
:1066E00002B070BD19291CD9FE29F9D162788DF844
:1066F00007202921284600F065F906E062788DF828
:106700000720EE6800232846B0470234E2E76378AA
:106710008DF807300DF1070201212846FFF7BCFF75
:10672000F3E70023EE681A4628460134B047D1E764
:1067300014392DE9F041044615461E4605294ED868
:10674000DFE801F03303171C4145264E32780AB1C9
:10675000FFF772FF2046FFF766FF00212046FFF794
:1067600058FF29462046FFF754FF01203070BDE84E
:10677000F0811146FFF74DFF0120F8E7194F3A78F5
:106780000AB1FFF759FF182D324606D82946204690
:10679000FFF75BFF00233B70EEE718212046183D12
:1067A000FFF753FFEDB21836EDE790F82430076994
:1067B000FF2B04BF782380F82430BC4633461421D5
:1067C000BDE8F0416047074B00221A70D4E7054D41
:1067D0002A780AB1FFF730FF00232B70CCE70020A6
:1067E000C5E700BFA80A00200B39F8B504461546D6
:1067F0001F46042955D8DFE801F003540C1B29007B
:106800002AB929492046FFF762FF0120F8BD274930
:10681000F8E73AB92649FFF75AFF23689B7C84F8CA
:106820002230F2E72349FFF752FF2368DB7CF6E7CB
:10683000FFF73BFF81212046FFF71CFF294620463A
:10684000FFF721FF2046FFF739FFDEE7FFF72DFFB7
:106850007B7994F8226006EBC30606F0FF06402120
:106860002046FFF707FF310941F010012046FFF7EE
:1068700001FF06F00F012046FFF705FFB97920461A
:1068800041F0B001FFF7FFFE39793A68C90001F025
:10689000F8012046013DFFF7FFFE15F0FF05F3D19B
:1068A000D0E70020B2E700BF2F37010034370100E6
:1068B000EC360100F336010038B504460D46FFF70B
:1068C00093FF50B9092D0AD00A2D07D1204600F0B8
:1068D00014F805492046FFF7FAFE012038BD0349A8
:1068E000204600F005F8F8E7FA3601003C370100D1
:1068F00001608B7C80F82230704738B50023044655
:106900001A4645692821A84700231A46E56814213C
:106910002046A847204601224B2100F053F8236867
:1069200020461A79292100F04DF8204600224B21FB
:1069300000F048F8236820461A79292100F042F82F
:10694000204601224B2100F03DF8236820465A7969
:106950002921BDE8384000F035B813B58DF8043072
:1069600002AB8DF80620049A8DF8051043F8082D27
:10697000846801220F21A04702B010BD10B48468C2
:106980000023A4461A4609215DF8044B604710B461
:1069900084680023A4461A460A215DF8044B604728
:1069A00010B484680A46A44600230B215DF8044B0A
:1069B000604710B484680023A4461A4610215DF88D
:1069C000044B604710B444690023A4465DF8044BAF
:1069D000604700207047FFFF00230C4A036080F8E7
:1069E000233080F826308361FF23C0E90222C0E90A
:1069F000042280F8243080F8283000F12C02423044
:106A000002F8013B8242FBD1704700BFD36900000E
:106A1000F8B5069D044617461E46FFF7DDFFC4E99C
:106A20000465C4E902172046BDE8F840FFF7A6BF99
:106A30007047704770477047704790F82C20436B41
:106A400010B504462AB16C309847002384F82D30E5
:106A500010BD3C30F8E7F8B5427C036804460E46AA
:106A6000CFB29B680D0A62B939469847236860F334
:106A700007069B6829462046984760F30F26B0B268
:106A8000F8BD29469847236860F30F269B6839466E
:106A90002046984760F30706F1E7FFFF0179036896
:106AA000034A0333012918BF0221D154704700BFA4
:106AB000000000207047FFFF70B590F82C3086B0C2
:106AC00004468DF80F103BB3836A1A4D0222EA5434
:106AD00007230093866B01230DF117020DF10F01BF
:106AE0006C30B04708F066FB0646A36AEB5C012BEE
:106AF00007D008F05FFB801BB0F57A7F01D200BFA2
:106B0000F3E7A36AEB5C022B10D1236820461B6BD2
:106B10009847002006B070BD436C9DF80F201A7195
:106B2000DA78D209FCD01B798DF817309DF8170060
:106B3000F0E700BF00000020F7B513460446084602
:106B4000002900F0898094F82C2022B3A26A434DDA
:106B50000226AE5407220092A66B0A4604F16C008E
:106B6000B04708F027FB0646A36AEB5C012B07D071
:106B700008F020FB801BB0F57A7F01D200BFF3E75D
:106B8000A36AEB5C022B67D123681B6B204603B022
:106B9000BDE8F040184703F0030C9B085AD0616C25
:106BA0000D7862F3861520220D70CA720A8A0225BA
:106BB00065F30B220A820A7842F040020A70CA7812
:106BC0009506FCD502684A60012B18D0CA78920657
:106BD000FAD542684A6002276FF0030E0EFB070EDB
:106BE0003E46F51B9E420CD2CA78D209FAD050F824
:106BF00026204D684A604EF826500136F1E71F46C0
:106C0000EAE79D4207D2CA78D209FAD04A6840F82A
:106C100025200135F5E70B786FF386130B704023C1
:106C2000CB720B8A072262F30B230B820B7843F0A3
:106C300040030B70AD0043196044284483420BD0DD
:106C4000626C19781171D178C909FCD0127903F8F6
:106C5000012BF3E71D46EDE703B0F0BD0000002077
:106C600010B5CC2104460BF065FA204610BDFFFF9D
:106C700070B5134D0560C361124D9DF8103045602D
:106C80000126002580F82030DF23057246728572C8
:106C9000C560057446748574C0E90512C0E90955DC
:106CA00080F82C5080F82D50C0E90C55856380F891
:106CB000993080F89A3080F89B3080F89C3070BD15
:106CC0006437010040420F002DE9F04F8FB01E469F
:106CD000B2F100089DF86430DDF860B0019304461D
:106CE0000ADB002E08DBBBF1000F05DB884503DA69
:106CF0008E4201DA8B4504DB00232370636023722C
:106D0000ADE00DF1200A04225FFA88F150460AAF87
:106D10000BF078F90CAD0522F1B238460BF072F9A0
:106D200006225FFA8BF128460BF06CF90022CDE9C0
:106D30000222CDE9047500929146CDF81CA0079B74
:106D4000009933F811304FEAA31A03F001000AF05A
:106D50001F0506904FF0000C4FF0030E23B304986C
:106D6000009930F81100F8B1059830F81100D8B149
:106D7000049830F81C708AEA9710C00614D1059860
:106D80006FF0010101FB0E00C0888AEA9011C9066C
:106D90000AD1069A12B3019A022A19D0019ABAB1FD
:106DA000CDE902702A469946BEF1010ED6D10CF10A
:106DB000010CBCF1030FCFD1009B0133032B0093D7
:106DC000BDD11546B9F1000F04D0DDE902704B4684
:106DD00007B130B900232370656090E7019A012A5A
:106DE000DBE713F0010933D0092DF3DC17F4F04F82
:106DF000274F0CBF4FF080624FF0A06213F4F04FAA
:106E00000CBF4FF0806A4FF0A06A42F4803210F459
:106E1000F04F37F838101F480CBF4FF080694FF023
:106E2000A06903F0F7F94AF4803237F836101948B0
:106E300003F0F0F949F4803237F83B10154803F0BD
:106E4000E9F94FF0010984F800906560012356E7E5
:106E5000022D08DD84F80090656084F808902046D3
:106E60000FB0BDE8F08F0A4F0B4A37F838100948C9
:106E700003F0D0F937F83610074A064803F0CAF98C
:106E8000054A37F83B10034803F0C4F9DBE700BFBD
:106E90000839010030190020000001060B79013B80
:106EA000DBB2022B98BF094A10B59EBFD45C084ADA
:106EB000D25C4B7988BF0022B3FA83F388BF1446B3
:106EC0005B0903704270847010BD00BF543701002D
:106ED0005737010073B500F198030364D0F8B03060
:106EE0000366D0F8B430836690F8983003F58003D9
:106EF00003F5E46304460E4600251B024566436421
:106F000001A8FFF7CBFFB4F8C3303068ADF800300C
:106F1000694601F0D3F9636C1D70EFF31082012311
:106F200083F310882C4994F898604868C6F11306DA
:106F3000B34020EA03034B604B6882F3108894F857
:106F4000BF1094F8BE20636C8A40D2B25A702022DF
:106F50009A709DF800209A72DA7A9DF8041042F037
:106F60004002DA7293F82020C84360F3000283F8ED
:106F7000202010221D735D739D73DA7394F8A12095
:106F80001AB91A7842F008021A701D821A8A9DF8FE
:106F9000060060F300021A821A8A9DF8050060F369
:106FA00041021A821A8A9DF8010060F383021A8254
:106FB0001A8A072060F30B221A821A8A61F30C32B4
:106FC0001A82DA78DD701A7842F040021A70034BA8
:106FD000E36302B070BD00BFFC6F044049505352E0
:106FE00037B5044668460D46FFF758FFD4F8C83059
:106FF000ADF8043001A91B0C002228688DF806307A
:1070000002F05AFB626F9DF801309DF80240507B00
:1070100091799B0143EAC41303439DF8000041EAC0
:10702000C0019DF8050000F0030040F080001070E2
:107030009DF804005070DBB25373CBB2937103B070
:1070400030BD90F82C300BB1FFF7CABFFFF742BF3D
:107050002DE9F043044689B000F0F6FD94F82030A5
:107060000193E36900930146D4E9052302A8FFF7E1
:107070002BFE9DF80820039B9DF81060636284F846
:107080002C20002A7BD0454A2263454A6263454A48
:10709000A263DA1CA26204F1C802C4F8B820424A12
:1070A00084F898300C2384F89D3084F89E3084F85E
:1070B0009F3084F8A030012384F8A43084F8BC30D9
:1070C00084F8C33094F8C430C4F8B020002565F3C8
:1070D000010384F8C43094F8C93084F8A15065F3F2
:1070E000010384F8C930271D0B2384F8C83084F8C5
:1070F000A25084F8A35084F8A550C4E92A55C4F8D6
:10710000B45084F8BD5084F8BE5084F8BF5084F861
:10711000C05084F8C15084F8C25084F8C55084F837
:10712000C65084F8C75084F8CA5039462046FFF745
:1071300088FF6268E26094F82C3022892282A27A69
:10714000A274BBB1636A8DF81C3004F16C0704F1C2
:1071500098080597CDF8188006F09EF80A2105AA30
:1071600006F096FA236B814641463846984790B917
:1071700006EA090684F82D6009B0BDE8F0830B49E2
:1071800021630B4961630B49A16304F1BC01A36254
:10719000C4F8B81084E72E46ECE700BFD592000093
:1071A000B9910000B59600009D6A0000D97F0000EB
:1071B000617D0000C97F000037B590F82D306D4625
:1071C000044685E8060013B90368DB6A9847E2685D
:1071D000009B9A4205D12369019A534033F07F43C3
:1071E00009D029462046FFF72CFF0098A988AA79E4
:1071F000E0602182A27403B030BDFFFF07B5012318
:1072000000930B220D230C210248FFF731FD03B040
:107210005DF804FBAC0A002073B504464069134ACC
:1072200003680092002501268DF804508DF8056052
:107230008DF8065002AA12E90600DB699847294634
:10724000207E07F053FE60690368C0219B68984761
:107250003146207E07F04AFE606903681B6A984742
:10726000052002B0BDE8704007F060BF809698002E
:10727000F7B504464069184A0368009200250126C4
:107280008DF804508DF806508DF8056002AA0F465F
:10729000DB6912E9060098472946207E07F026FEA2
:1072A0006069036803219B689847606903683946F1
:1072B0009B6898476069036829469B6898473146F0
:1072C0000546207E07F012FE606903681B6A984736
:1072D000284603B0F0BD00BF809698002DE9F34129
:1072E0000446406915461B4A009200271E460122AB
:1072F00003688DF805208DF804708DF8067002AAD9
:10730000DB69884612E9060098473946207E07F077
:10731000EDFD6069036803219B6898476069036815
:1073200041469B689847013D2E44B54207D06069AD
:10733000036800219B68984705F8010FF5E7207E58
:10734000012107F0D3FD606903681B6A02B0BDE844
:10735000F0411847809698002DE9F34104464069B2
:10736000002517460368164A009201268DF804503E
:107370008DF805608DF8065002AA8846DB6912E98F
:10738000060098472946207E07F0B0FD6069036833
:1073900002219B6898476069036841469B6898474B
:1073A0006069036839469B689847207E314607F03C
:1073B0009DFD606903681B6A02B0BDE8F041184793
:1073C000809698002DE9F3410446406915461B4A12
:1073D000009200271E46012203688DF805208DF8D3
:1073E00004708DF8067002AADB69884612E906006F
:1073F00098473946207E07F079FD606903680221CD
:107400009B6898476069036841469B689847013DBF
:107410002E44B54206D0606915F8011F03689B68C9
:107420009847F6E7207E012107F060FD6069036858
:107430001B6A02B0BDE8F041184700BF8096980073
:107440002DE9F74304464069002590461F46012672
:107450000368184A00928DF804508DF805608DF885
:10746000065002AA8946DB6912E9060098472946B8
:10747000207E07F03BFD6069036805219B68984703
:107480006069036849469B6898476069036841469C
:107490009B6898476069036839469B689847207ED7
:1074A000314607F023FD606903681B6A03B0BDE83D
:1074B000F04318478096980073B504464069154A12
:1074C00003680092002501268DF804508DF80650BF
:1074D0008DF8056002AA12E90600DB699847294683
:1074E000207E07F003FD60690368A0219B68984730
:1074F0006069036829469B68984731460546207EA7
:1075000007F0F4FC606903681B6A9847284602B0DC
:1075100070BD00BF8096980070B504460D4607F018
:1075200049FEC6B22B46E0220F212046FFF788FF16
:107530000E212046FFF79CFE00F0E000854207D0B8
:1075400007F038FE801BC0B2C828EBD9012070BDFF
:107550000020FCE770B50D460E210446FFF788FEBB
:1075600000F0E000202820D1202D1ED02B21204625
:10757000FFF77EFE10F0400605D140231A462B216E
:107580002046FFF75DFF40232C2120461A46FFF7D7
:1075900057FF60212046FFF7BFFF90B92EB9334651
:1075A00040222B212046FFF74BFF20462C210023B1
:1075B0004022FFF745FF29462046BDE87040FFF70F
:1075C000ABBF012070BD4176FFF7C4BF70B5064662
:1075D00002F00300012855D0C0F08280022840F05C
:1075E000BA8001390D2900F2B680DFE801F0A90761
:1075F0002024282C3033363A3D4144488424F62553
:10760000932352074FF02A011A46304648BF04F030
:107610007F04FFF7A1FE2A4629213046FFF79CFE92
:10762000304622462821FFF797FE002070BD8424B3
:10763000F6258923E5E78324E5258723E1E78424EC
:10764000F6258523DDE78424F6258423D9E78324E2
:10765000E525FAE78124D325F7E78424F62581235D
:10766000CFE78324E525FAE78424F6258023C8E7BD
:107670008324E525FAE78124D1250023C1E780246E
:10768000C025FAE701390D2965D8DFE801F05D076B
:107690000B640F481345161A611E22268424F62512
:1076A0006723AEE78424F6255323AAE78324E52540
:1076B0004E23A6E78424F625A3E78324E525442367
:1076C0009FE78324E52543239BE78324E525412386
:1076D00097E78324E525402393E78124CA25CCE757
:1076E0000639082937D801A353F821F0277700007D
:1076F0001F7700001177000019770000BB760000AB
:107700002F77000051770000357700003B770000AD
:107710008724FF25C42374E78424F625CFE7842437
:10772000F62549236DE78124D325182369E78124B1
:10773000D325C4E78424F625CDE78224D9259CE708
:107740008424F625A7235CE78724FF253F2358E7F9
:107750008424F625BBE7012068E700BF012A13B5A2
:1077600019D11A128DF807301B0C03F003048DF8A1
:107770000620DA0022F01F0244F0080422435B11C5
:107780008DF805208DF8043004230DEB0302FFF77C
:1077900019FE02B010BDC3F3CC025B018DF80530B9
:1077A00000238DF80420ADF80630EDE737B5012A47
:1077B000DDB2C3F307248DF807504FEA13438DF869
:1077C000064013D1DA0003F0030422F01F0244F054
:1077D000080422438DF805205B118DF80430042342
:1077E0000DEB0302FFF7EEFD03B030BD5A018DF83B
:1077F0000520DB10F1E738B50122044600232021E3
:10780000FFF7D4FF0023012224212046FFF7CEFFFB
:107810000023194601222046FFF7C8FF00231A461D
:1078200004212046FFF7C2FF002301220821204641
:10783000FFF7BCFF00231A4610212046FFF7B6FFD2
:107840000023012214212046FFF7B0FF00231A462F
:1078500018212046FFF7AAFF30252946002220469E
:10786000FFF77AFD05F110010022C9B22046FFF7AB
:1078700073FD05F1200101350022C9B22046EDB2A9
:10788000FFF76AFD3E2DE8D1204600226021FFF778
:1078900063FD204600227021BDE83840FFF75CBD43
:1078A0002DE9F04104460E4617469846FFF7B4FC12
:1078B0004023637680212046FFF74CFE054620B129
:1078C0002649274807F0E0F945E02649244807F013
:1078D000DBF9424639462046FFF778FE08B12249D7
:1078E000EFE722491E4807F0CFF92046FFF783FF54
:1078F00003222B212046FFF72FFD3C220C2120469E
:10790000FFF72AFD2A460D212046FFF725FDAEB1DF
:10791000032E1BD164231A4660212046FFF790FDF9
:107920006023602270212046FFF78AFD617E204699
:10793000FFF710FE054670B10D49C2E7042364222B
:1079400060212046FFF77CFD3346EAE709490448F9
:1079500007F09AF901252846BDE8F0819837010023
:1079600038180020BF370100E73701000338010055
:107970003C3801002038010037B51C460023137045
:107980002360042315460DEB0302FFF7A7FC9DF8C7
:1079900005309DF804105A1102EBC102190722604C
:1079A0000ED503F0030303EB82039DF8062002EBE0
:1079B00003229DF8073003EB0223236001232B7081
:1079C00003B030BD70B504460D460531037A00F1B1
:1079D0000902C9B2FFF7F6FC637C012B02BF237AD0
:1079E00043F040032372291D227A2046C9B2FFF7D3
:1079F000B3FC6368227829462046BDE87040FFF753
:107A0000ADBE70B5031D0D4602460446FFF7B4FF38
:107A1000691EC9B22046FFF72BFC291D0646C9B2D4
:107A20002046FFF725FC16F008061CBF01236374EF
:107A300005F1050100F00F03207208BF6674237280
:107A400004F109022046C9B2BDE87040FFF746BC08
:107A50002DE9F34144F23003ADF804300024502303
:107A600007460E468DF806300C700DF1040814F828
:107A7000085038462946FFF7FBFB10F0080004D1F8
:107A80000135357002B0BDE8F0810134032CEED130
:107A90000220F7E710B5044608462176012107F0D9
:107AA00025FA207E012107F009FA024B6361204686
:107AB00010BD00BFAC0A0020F8B5044640691F465F
:107AC00003680D461646DB6A98473B463246294610
:107AD0002046FFF7E5FE003018BF0120F8BD10B5C5
:107AE000039C03709DF80830037241604274631E6A
:107AF0000930073413F8012F00F8012BA342F9D104
:107B0000002010BDF7B5054607F05AFB40F6C31438
:107B100006460DF107012846FFF79AFF074607F0D2
:107B20004FFB022FA0EB060003D1A042F1D906249F
:107B300028E0A042FBD89DF807102846FFF742FF37
:107B40009DF80710082301391A46C9B22846FFF7E5
:107B500077FC07F035FB40F6C31607469DF8071083
:107B60000139C9B22846FFF783FB00F0080407F08B
:107B700027FBC01B1CB1B042F0D9072402E0B04281
:107B800088BF0724204603B0F0BD37B5069DCDE978
:107B90000035134600220446FFF7A1FF204603B03C
:107BA000BDE83040FFF7AEBF38B50546FFF784FCAF
:107BB00010F001040BD061212846FFF722FF0023BB
:107BC000012228462C21FFF73BFC002038BD83070B
:107BD00006D571212846FFF714FF23460222F0E75D
:107BE0000420F3E7F8B504460F4616461D46FFF796
:107BF000DBFF042819D023781BB1606840F00040F7
:107C00006060637C1BB1606840F0804060606368C6
:107C10003B60237A33700022237A934204DDA31859
:107C20005B7AAB540132F7E70020F8BD08B5FFF7E7
:107C300043FC10F0030F14BF0320042008BD08B557
:107C400007F0D0F9002008BD1B207047034AB2F8A6
:107C5000CC3043F08003A2F8CC30704700000940DC
:107C600037B501210D2007F029F900210D2007F07B
:107C70003DF96846072203210AF0C4F9BDF8003037
:107C80001C4CC3F384130125684607220521E554E3
:107C90000AF0B8F9BDF80030C3F384136846072230
:107CA0000621E5540AF0AEF9BDF80030C3F38413A1
:107CB000684607220921E5540AF0A4F9BDF800300E
:107CC000C3F38413684607220A21E5540AF09AF99F
:107CD000BDF80030C3F3841307220B216846E55436
:107CE0000AF090F9BDF80030C3F38413E55403B0F3
:107CF00030BD00BF620C00200B7930B4DB01114CA9
:107D0000114DDBB2A3714B788A781B01120302F488
:107D10004052DBB213430A788446A85CCA78120248
:107D200002F4407200F003001343034363804B7975
:107D3000064ADB01DBB22372002030BCCCF8002005
:107D4000704700BF00420440E0390100544457002E
:107D5000024B0020FF2218701A7070470042044046
:107D60004368002210B502605A69044622B1936844
:107D700010681B6A984763681A6922B19368106893
:107D80001B6A9847636893F90220002A0EDB5309A7
:107D900024480121203302F01F0201FA02F240F8C8
:107DA0002320BFF34F8FBFF36F8F636893F90120D8
:107DB000002A0EDB53091B480121203302F01F0269
:107DC00001FA02F240F82320BFF34F8FBFF36F8F09
:107DD000636893F90330134859090122203103F0F5
:107DE0001F0302FA03F340F82130BFF34F8FBFF3B4
:107DF0006F8F636893F90430590903F01F039A40A9
:107E000001F1200340F82320BFF34F8FBFF36F8FA2
:107E1000A3681A786FF386121A700020DA78D87087
:107E200010BD00BF00E100E030B5836A85B00446B4
:107E30008C4601ADABB193E8070085E807006268A6
:107E4000117883F804C0E26A9A6019601846626A81
:107E50009047A36A1BB195E8070083E8070005B0C7
:107E600030BD2B46EBE700BFF8B504461D46A668BB
:107E70009DF81800337813F040037BD1C4E9031256
:107E80000F46616884F82000D1F814C0E561C4E9A8
:107E90000533BCF1000F20D00F28A56159D9DCF8BB
:107EA00004301968CB78022060F30513CB708B780F
:107EB000022060F383038B70ABB2CB818A60002A0F
:107EC00070D0DCF80830DCF800005B6898470028C8
:107ED0003ED1616894F82000A6680B69FBB15A682E
:107EE00065610F2811683ED9CA78022060F3051237
:107EF000CA70CA780220ADB260F38302CD81CA7025
:107F00004F60002F55D0327818686FF345123270E9
:107F10009A6853689847D8B9A66894F82000F27A0E
:107F2000338A0F28D2B29BB226D9013022F0400208
:107F30008008053842F0200223F4706343EA0020F1
:107F400080B2F2723082337843F0600300203370E5
:107F5000F8BD072817D8DCF804100968C87863F35F
:107F60000510C870A3E7072816D8CA786FF3051262
:107F7000CA70BEE70820F8BD072894BF42F040024F
:107F800002F09F02D8E7DCF804301968CB780120B2
:107F900060F30513CB708AE7CA78012060F30512FD
:107FA000CA70A6E78B7862F383038B70044B8B60F7
:107FB00087E7D2B267F38302CA70024A4A60A2E737
:107FC000780B00207C0B002010B49DF80440019435
:107FD0005DF8044BFFF748BF2DE9F04F0B780F69B0
:107FE00003F5800303F5E4631B0283B00D460446EA
:107FF00003F10408002F00F00B81D7E901131A6880
:108000000B684FF000601860C3F80880386890472C
:108010000646002840F0F8806B6973B1D3E901127D
:1080200018680B681268C3F804804FF400261E60BD
:1080300090470646002840F02E812B7803F58003F8
:1080400003F5E4631B02D5E9061200206560616256
:10805000E262A062A3606F7A002F40F0F080B82146
:1080600008204FF0100E6B7BEE7A2A6AAD7A1B0364
:1080700043EA46032B4315780DB140F0B10192F865
:1080800001C090784FEA4C1646EA4C0621EACC1122
:10809000314323F070051679D378009198401B0185
:1080A0001EB1022E14BF2026302692F805C0BCF166
:1080B000000F06D0BCF1010F14BF4EF0010E4EF0C0
:1080C000030E92F808C092F806B00CF0030C43EAD5
:1080D0008C032B43002F40F0B580917A92F80990E1
:1080E00092F80B80019143F46043EFF3108A01256D
:1080F00085F31088676897F800C06B4FCCF1130CBC
:10810000D7F8001105FA0CFC21EA0C0CC7F800C1E5
:10811000D7F800718AF31088A7689DF8001097F8C7
:1081200003C0C0B24FF0000C87F803C039707870FC
:10813000BE70D279BA729BB2019A616887F80C90CE
:108140005FFA8EFE7A7387F80E8087F80FE03B8225
:1081500087F820B091F90230634579DA534891F9F4
:108160000130002B21DB4A7903F1604505F56145BB
:108170001201D2B285F8002303F1C00640F8234073
:108180004B4D5A0955F82670920002F160426FF388
:10819000104745F8267002F5614203F01F030125E0
:1081A00005FA03F3C2F88031136091F904200B7AC9
:1081B000404D3F4EAF181B01DBB287F8003302F190
:1081C000C00740F8224056F827C053099B0003F12E
:1081D00060436FF3104C46F827C003F56143012656
:1081E00002F01F0206FA02F2C3F880211A6091F928
:1081F0000320CB7915441B01DBB285F800332E4BED
:1082000040F8224000262360304603B0BDE8F08FDE
:108210004A69002A3FF417AFD2E9011310681A68BF
:108220000B684FF400261E60C3F804809047064692
:1082300000283FF402AF304603B0BDE8F08FB02114
:10824000864610E74FF00008CDF80480C1464CE7A1
:108250008A79174E03F1604000F561401201D2B2F5
:1082600080F80023114803F1C0075A0940F8234061
:10827000920003F01F0305FA03F302F1604256F87F
:10828000275002F561426CF3104546F82750C2F8BA
:108290008031136063E7BB6838681B6A98473046D3
:1082A00003B0BDE8F08F00BF006F0440D00B00208A
:1082B0000060004000E100E049505352214A224B47
:1082C000126A1B68C2F3026C03FA0CF3C2F30232A7
:1082D000D340421E1344B3FBF0F0B0F5805F20D8CA
:1082E000012820D9B0F5007F00B523D9B0F5806F03
:1082F00024D9B0F5006F95BF082210224FF0020E6E
:108300004FF0030E91F801C0431E6EF3010C1344AD
:10831000B3FBF2F3013B81F801C00B7000205DF864
:1083200004FB062070474B7800206FF301034B706D
:108330000870704702224FF0000EE3E704224FF06E
:10834000010EDFE700E001405C0C002010B4EFF309
:108350000383103B5BB203F1C001204A204C52F86A
:1083600021006FF3104042F8210054F82330D3E984
:1083700006218A421BD0186940B393F820400F2C85
:108380000BD99968496840F82210D96901328A42AC
:108390009A610CD05DF8044B7047072C19D8996886
:1083A00009798154D96901328A429A61F2D15B68B4
:1083B0000C4993F903305DF8044B5809012203F08E
:1083C0001F0302FA03F341F82030704798684068B1
:1083D000DCE79C68A48820F81240D7E700600040E2
:1083E000D00B002000E100E0F0B5EFF30383103B79
:1083F0005BB203F1C0022F492F4C51F822006FF3FA
:10840000104041F8220054F823305868026A002ACC
:1084100030D092F801C0DC695A69BCF1010F17D065
:1084200094420FD0D96841B393F820000F280AD89E
:108430000728986895BF895C31F812100171818016
:1084400001325A61F0BD986851F822104160F7E797
:1084500004F1FF3E724513D001690029E0D090F984
:10846000031016484D0901F01F010CFA01F140F804
:108470002510D5E75A69DC69D2E798684160DFE7E3
:1084800090F903E00EF1C0064FEA5E10800051F84B
:10849000267000F1604000F561400EF01F0E0CFAEE
:1084A0000EF56FF3104741F82670C0F88051056053
:1084B000B6E700BF00600040D00B002000E100E004
:1084C00010B4EFF30383103B5BB2324A324C03F13A
:1084D000C00152F821006FF3104042F8210054F817
:1084E00023008268D278920706D54268527A012A20
:1084F00002D05DF8044B70475909284C0122203105
:1085000003F01F0302FA03F344F82130BFF34F8F47
:10851000BFF36F8F436893F90230002B2FDB5909AB
:10852000203103F01F0302FA03F344F82130BFF3B4
:108530004F8FBFF36F8FD0E90114237891F90210A8
:108540006FF386130029237014DB01F1C00C114C6A
:108550004B099B0001F01F018A4003F1604354F86E
:108560002C1003F561436FF3104144F82C10C3F84D
:1085700080211A605DF8044B0121FFF755BC826829
:108580005DF8044B13786FF3861313700121FFF726
:108590004BBC00BF00600040D00B002000E100E0B9
:1085A00070B5EFF30384103C314B64B253F8246090
:1085B000736893F90230002B42DB5A092D492032AF
:1085C000012003F01F0300FA03F341F82230BFF348
:1085D0004F8FBFF36F8FD6E9012392F902101A78FB
:1085E00000296FF386121A7015DB01F1C00C224DC1
:1085F0004A09920001F01F0100FA01F102F1604204
:1086000055F82C0002F561426FF3104045F82C003C
:10861000C2F880111160DA780021D5B21207D97042
:1086200021D4EB0712D405F01405142D16D0124BEB
:10863000C03453F824206FF3104243F8242070BD57
:10864000B3681A786FF386121A70E4E70421304693
:1086500005F01405FFF7E8FB142DE8D1082130469A
:10866000FFF7E2FBE3E705213046FFF7DDFBD8E744
:10867000D00B002000E100E000600040036A70B50C
:108680000446987800F07B0098700D46217841B33D
:108690002261E269E5601069002841D0226982B157
:1086A000A378816800688E68E16803F00303013BEA
:1086B00022FA03F3002222619BB2B04780B9236AF9
:1086C00021789A7842F080029A7039BB94F802C0FF
:1086D0000CF0030CBCF1020F1AD02A78DA700020DB
:1086E00070BD94F802C0E0690CF0030E0069A2EBC3
:1086F0000E02226105EB0E02E2600028CED19A78CC
:108700000CF0030C42F08002BCF1020F9A70E4D12D
:108710002A8842F47E420020DA8170BD002070BDBC
:108720009A7842F080029A7070BD00BF036A91F897
:1087300001C09A7800B502F07B0E02F00B029A702D
:108740000022C2608878587010461A786CF30102D3
:108750001A70CA789A7493F807C00A780CF0A301CB
:1087600002F05C020A43DA7183F802E05DF804FB70
:1087700010B5D0E90721002343608B7092F90520E2
:108780002F49044650090123203002F01F0203FA4A
:1087900002F241F82020BFF34F8FBFF36F8FE269E1
:1087A00092F90B205009203002F01F0203FA02F266
:1087B00041F82020BFF34F8FBFF36F8FE26992F92A
:1087C00007205009203002F01F0203FA02F241F89C
:1087D0002020BFF34F8FBFF36F8FE26992F909201A
:1087E000500902F01F02934000F1200241F82230AC
:1087F000BFF34F8FBFF36F8FE369DA6822B19368DD
:1088000010681B6A9847E3691B691BB19A6818686E
:10881000136A9847EFF31081012383F31088E3690B
:10882000084A1C78D2F800014FF00043E3400343AC
:10883000C2F80031D2F8003181F31088002010BD59
:1088400000E100E0006F0440F0B5846A85B00546A1
:108850000F4694466E46B4B194E80F0086E80F00C8
:10886000EB691B7884F804C02360EB6A2046C4E9F6
:1088700002736B6A9847AC6A1CB196E80F0084E8F3
:108880000F0005B0F0BD3446EAE700BF8C465168E2
:1088900030B4029C0D6880B91C609CF8010038B9A6
:1088A000E8784FF0010C0B346CF30510E8701C6095
:1088B000936810681B6830BC184704F10C001860FE
:1088C000EBE700BF2DE9F0470D4609780323CB40C5
:1088D00013F0010301F1007218BF1023037002F5B9
:1088E000605283785201012161F301030262A96998
:1088F0006A6942620022C0E90A21C56183706B780F
:1089000082B0044623B98378022262F301038370A4
:1089100095F90B00594B95F80AC04209203200F036
:108920001F06012101FA06F643F82260BFF34F8FBC
:10893000BFF36F8F524A534E00F1C0074FEA0C1C31
:1089400052F827E06FF3104E42F827E01F185FFA45
:108950008CFC87F800C346F8204095F9050095F88F
:1089600004C04709203700F01F0E01FA0EFE43F83D
:1089700027E0BFF34F8FBFF36F8F00F1C00703EB0A
:10898000000852F827E04FEA0C1C5FFA8CFC6FF3EA
:10899000104E42F827E088F800C346F8204095F9C9
:1089A000070095F806C04709203700F01F0E01FAAE
:1089B0000EFE43F827E0BFF34F8FBFF36F8F00F138
:1089C000C00703EB000852F827E04FEA0C1C5FFADF
:1089D0008CFC6FF3104E42F827E088F800C346F88D
:1089E000204095F9090095F808C04709203700F0A4
:1089F0001F0E01FA0EF143F82710BFF34F8FBFF39C
:108A00006F8F00F1C0074FEA0C1152F827C00344E2
:108A10006FF3104C42F827C0C9B283F80013EA681C
:108A200046F8204072B153681B684FF4002143F8A8
:108A3000041B216A05310091E1692078FFF726FFC8
:108A40000646B0B92A69FAB153681B684FF0006155
:108A500043F8081B216A03310091E1692078FFF790
:108A600015FF064680B1EB681BB19A681868136A57
:108A70009847304602B0BDE8F08700BF00E100E053
:108A800000600040D00B0020EFF31080012383F33F
:108A90001088984B2E78D3F800214FF00041F14018
:108AA00022EA0102C3F80021D3F8003180F31088D4
:108AB000236AE06900229A701A715A729A72DA7205
:108AC0005A83297840F20722CA40D20744BF402285
:108AD000DA7406221A7722787AB1C168013A00293D
:108AE00000F0FE800126120391B2314341F00602EC
:108AF0009A829A8A92B29142FBD1EA78A978D200FE
:108B000042EA01126978032900F0D780002914BFD6
:108B1000F221E221ED69D2B21A7099712A7B5200DA
:108B200002F002025A736A78A97800261E7295F83C
:108B300000C0D201490101F02001D2B20A43ACF1D8
:108B40000201012940F2BD80D2B2DA716A689178DF
:108B500059701978567866F301011970D1789974B3
:108B60001278D97902F05C0201F0A3010A43DA71AC
:108B70000027C4E90377C4E9057790F905105E4E34
:108B800001F1C00E4A0956F82E80920067F3104892
:108B900002F1604246F82E8002F561424FF0010E6C
:108BA00001F01F010EFA01F1C2F88011116090F975
:108BB0000B1001F1C0094A0956F829A0920002F1F0
:108BC000604202F5614267F3104A01F01F0146F866
:108BD00029A00EFA01F1C2F88011116090F9071076
:108BE00001F1C0094A0956F829A0920002F1604239
:108BF00002F5614201F01F0167F3104A46F829A00F
:108C00000EFA01F1C2F88011116090F9091001F11A
:108C1000C0004A0956F82090920002F1604267F3C2
:108C2000104946F8209002F561420CF0030C01F067
:108C30001F010EFA01F14CF0700CC2F880111160A6
:108C400083F802C06B8923814FF6FF7843452DD00E
:108C5000EFF310818EF31088284A13681BB9284857
:108C6000C3704023C37013680133136081F310880D
:108C7000218924480B0A1B0153FA81F150F8213055
:108C800023F0011323F4404343F0040340F8213060
:108C9000EFF31081012383F31088136813B1136875
:108CA000013B13601368B3B181F31088164B636006
:108CB0000026304602B0BDE8F08742F04002F221C3
:108CC00028E7BCF1020F08BF42F01002FF21D2B228
:108CD0005970DA714CE70A4A8020D370D070E3E70C
:108CE000C169097A1140090201F4706141F001067D
:108CF000F9E600BF006F044000600040CC0B00208C
:108D0000000D044000080440554943532DE9F04F3D
:108D10001E46FF23B37033786FF382038BB033703A
:108D20008023F370554B0992554A1B6A12680191D2
:108D3000C3F302618A40C3F30233DA40514B079018
:108D40000021100A06920891059002910093A2FB5F
:108D500003BA099B009A93426EDA9DF82030039380
:108D60000027494B039ADD5DC5F34003C5F3800539
:108D700004932B43934256D1444B33F81780079BFF
:108D800003FB08F8069BB3FBF8F2541EFF2C4AD8ED
:108D900002FB08F91DE0059BB9FBF3F37F2B03FBF6
:108DA00000F040D90028B8BFFF300012A0F5C33052
:108DB000A0380028009AB8BF4042824240DC029BA3
:108DC000F370337843F00403A9EB0809337054B30C
:108DD000013C4A464FEAE9735846514609F074FE91
:108DE000019A002AD7D1A0F5C333A03B002B009AEB
:108DF000B8BF5B429A4216DD0093234BB470DA5D34
:108E00003378C2F3000161F38613049961F304130C
:108E100065F3C30333707378C2F3C10262F30103D5
:108E20007370019B029301370D2F9AD1089BF3B108
:108E3000009B099A93421DDC00200BB0BDE8F08F27
:108E40000293114B049AD95D33780090C1F300006E
:108E500060F3861362F3041365F3C303337073780E
:108E6000B470C1F3C10161F301037370A7E701237B
:108E700008936EE703200BB0BDE8F08F00E00140DF
:108E80005C0C0020A0860100E8390100F8390100DF
:108E9000F0B5EFF30383103B5BB203F1C001344A3A
:108EA000344C52F821006FF3104042F8210054F87E
:108EB0002300C3691B6913B1036913B1F0BD0369D2
:108EC00083B9D0E90824937803F07F03002143F0AD
:108ED00004039370C160002CF0D0BDE8F040802204
:108EE000FFF7B2BC05785DB3066AF18AC1F30421CD
:108EF000A9421ED28478C2681F4F04F0030E744644
:108F00000BE092F800C086F80FC001311B1B224411
:108F1000A942C0E903230CD25BB1BEF1020FF0D12C
:108F2000B2F800C04CEA070C1FFA8CFCA6F80EC081
:108F3000EBE732796FF3C7123271002BBED1C0E775
:108F4000827802F003010229C1680BD0046A0D780F
:108F5000E57002F003029B1A0A44C0E90323002BC8
:108F6000ACD1AEE70C88056A44F47E44EC81F0E7AE
:108F700000600040D00B002000FEFFFF10B582B063
:108F8000EFF30383103B5BB203F1C001574A584C27
:108F900052F821006FF3104042F8210054F82340AA
:108FA000E369DB6813B1A369002B49D122894FF62D
:108FB000FF739A4275D12278236AF2B1D98AC80622
:108FC00012D01B8AC3F308030193A369FBB9636A38
:108FD0002BB1042201992046FFF736FC22782AB1F2
:108FE000236AD98AC906E8D1BE221A7123894FF6AD
:108FF000FF72934231D102B010BDA17801F003019C
:109000000229DED05B790193A369002BDFD0A2781F
:10901000606902F0030201A909F02CFFD4E90521DF
:10902000A37803F003031A44C91AC4E9052129B936
:10903000636A1BB101222046FFF706FC2278CEE7C7
:10904000636A0021C4E90511002BD4D00122204617
:1090500002B0BDE81040FFF7F7BB1A0A120125491C
:1090600052FA83F351F8232022F0011222F44042F5
:1090700042F0040241F82320EFF31082012383F32E
:1090800010881D4B196811B11968013919601B68E6
:109090001BB91A498020CB70C87082F3108802B0C7
:1090A00010BDEFF31081012383F31088124B1A686F
:1090B0001AB91248C2704022C2701A6801321A608E
:1090C00081F3108822890B49130A1B0153FA82F29B
:1090D00051F8223023F0011323F4404343F00503F9
:1090E00041F82230236A227867E700BF0060004021
:1090F000D00B002000080440CC0B0020000D0440E1
:1091000010B5EFF30384103C0B4B64B253F824000A
:10911000D0E90821937803F07B03937019B1022200
:109120000021FFF791FB054BC03453F824206FF367
:10913000104243F8242010BDD00B002000600040F6
:1091400010B5EFF30384103C194B64B253F82400BC
:10915000037843B9837803F00303022B03D0036A37
:109160005979C9B203E0036A198AC1F3080193F877
:1091700004C01CF0100F0CF0380206D093F81CC08D
:109180001CF0010F08BF42F0400293F804C00CF03D
:10919000C70C83F804C0436A0BB1FFF755FB054BBE
:1091A000C03453F824206FF3104243F8242010BD3C
:1091B000D00B00200060004010B5D0E90132002142
:1091C000917093F902303149044658090122203048
:1091D00003F01F0302FA03F341F82030BFF34F8F6F
:1091E000BFF36F8F636893F901305809203003F0A3
:1091F0001F0302FA03F341F82030BFF34F8FBFF390
:109200006F8F636893F904305809203003F01F030F
:1092100002FA03F341F82030BFF34F8FBFF36F8F93
:10922000636893F903305809203003F01F0302FAF2
:1092300003F341F82030BFF34F8FBFF36F8FEFF38D
:10924000108182F310886368114A93F800C0D2F845
:1092500000014FF0004323FA0CF30343C2F800313E
:10926000D2F8003181F3108863685A6922B193689B
:1092700010681B6A984763681B691BB19A68186875
:10928000136A98470020206010BD00BF00E100E095
:10929000006F044030B5436A85B004468C4601AD8A
:1092A000ABB193E8070085E807006268117883F89E
:1092B00004C0A26A9A6019601846226A9047636ADD
:1092C0001BB195E8070083E8070005B030BD2B46C9
:1092D000EBE700BF2DE9F84F0C460B78D1E90521EB
:1092E00003F1007303F560530162E16981625B0180
:1092F0000021C0E9014306464162002A00F02181B5
:10930000516810680D6805336B6093684FF4002254
:109310001B682A6098470546002840F00F812269A3
:109320007AB1B368516810680D680333AB60936815
:109330004FF000621B682A6098470546002840F0FD
:1093400006817268156A95F902106B78AF7800296A
:10935000517AAABFFF274FF0040E4FF0000E0129EB
:10936000917A18BF4FF0000C03F0030306BF4FF0D3
:10937000020C05206046012943F08003D17A00F0F9
:10938000F080012914BF40F0800040F0C000517B04
:10939000002914BF4FF0E2084FF0EA08EFF3108AFB
:1093A000012181F3108892F800B0714A4FF0004912
:1093B00029FA0BFBD2F8009129EA0B09C2F80091B7
:1093C000D2F800218AF31088B2685FFA83F900238B
:1093D000937092F804A04FF0840A82F804A04FF42E
:1093E000784AA2F814A082F8009082F802C082F8AD
:1093F00006802D785570C0B2977482F807E05073DC
:109400004020137253729372D3725383D07402202C
:10941000107794F901206079564D574F05EB020CF7
:109420000001C0B28CF8000302F1C00E47F82260C0
:1094300052484FEA521C50F82E804FEA8C0C0CF127
:10944000604C0CF5614C63F3104802F01F0240F8C9
:109450002E8001FA02F2CCF88021CCF8002094F999
:10946000022094F806C005EB020E4FEA0C1C5FFACE
:109470008CFC8EF800C302F1C00E47F822604FEA60
:10948000521C50F82E804FEA8C0C0CF1604C0CF5FD
:10949000614C63F3104802F01F0240F82E8001FA7D
:1094A00002F2CCF88021CCF8002094F9032094F843
:1094B00007C005EB020E4FEA0C1C5FFA8CFC8EF81D
:1094C00000C347F8226002F1C00E4FEA521C50F868
:1094D0002E804FEA8C0C0CF1604C0CF5614C63F360
:1094E000104802F01F0240F82E8001FA02F2CCF878
:1094F0008021CCF8002094F904C0227A654412013E
:10950000D2B285F800230CF1C00447F82C604FEA72
:109510005C1250F82450920002F1604263F310454F
:1095200002F561420CF01F0C40F8245001FA0CF1D6
:109530001D46134BC2F88011116033602846BDE808
:10954000F88F2269002A7FF4EDAE2246FAE66369BD
:10955000002BF3D09A681868136A98472846BDE82C
:10956000F88F00297FF413AF40F040000FE700BFF1
:10957000006F044000E100E0D00B002000600040DC
:1095800053494353F8B504468068807810F03000A2
:1095900034D11D46E3616368C4E9031216461A69B3
:1095A000C4E9050092B1536865611B68A8B2D8810F
:1095B00031B35960D978022060F38301D97019461C
:1095C000936810685B689847B8B963685A6952B184
:1095D0004EB1936810689F68A561ABB23246002116
:1095E000B84750B96368206988B11869A8B1A26802
:1095F000937843F0F00300209370F8BD0820F8BD85
:10960000D87861F383002949D8705960D7E7A268F8
:10961000937843F0A0039370F8BD5A69A168002ABB
:109620008A7814BFF025702542EA05028A70E4D1D9
:1096300093F9013001215A0903F01F0301FA03F3E2
:1096400020321B4941F82230BFF34F8FBFF36F8F99
:109650006369E269934206D2D4E9020109B3C95CA5
:10966000C170013363616368597A01290CD093F9A1
:1096700001300F495809012203F01F0302FA03F3D6
:1096800041F820300020F8BD012AF0D961698A42F2
:10969000EDD9D4E9020232B1525CC270013161618C
:1096A000E5E7C170DDE7C270F8E700BF800B00207E
:1096B00000E100E0FFF766BF70B5204C204B246A44
:1096C0001B68C4F3026E03FA0EF3C4F3023E0D46A8
:1096D00023FA0EFE4FF0000C66460CF1010C4FEA27
:1096E0004C0300FA03F303EB0E04013C94FBF3F488
:1096F000013CFF2C02DDBCF1040FEDD1B2B19EFBA9
:10970000F3F4013C84F30804611C81FB03010902AA
:10971000724641EA10610023000209F0D5F9B0F564
:10972000807F71F10003B4BFC2B200226B782C704D
:1097300066F30103AA706B70002070BD00E0014069
:109740005C0C002010B4EFF30383103B5BB203F119
:10975000C001144A144C52F821006FF3104042F833
:10976000210054F823305A69D9698A4206D2D3E9D4
:109770000240A8B1805CE07001325A618A4202D096
:109780005DF8044B70471A69002AF9D19A685DF8B0
:10979000044B937803F07B0343F00403937070470A
:1097A000E070E9E700600040D00B002010B4EFF358
:1097B0000383103B5BB203F1C001174A174C52F808
:1097C00021006FF3104042F8210054F823305A6909
:1097D000D9698A4206D2D3E90240D0B1805CE070F8
:1097E00001325A619A698A4207D2986819694079A8
:1097F000541C9C618854D3E90621914206D19A6891
:10980000937803F03B0343F0040393705DF8044B3B
:109810007047E070E4E700BF00600040D00B00201C
:1098200010B5EFF30384103C0A4B64B2012153F8E6
:1098300024008268937803F003039370FFF72AFDF6
:10984000C034054B53F824206FF3104243F8242012
:1098500010BD00BFD00B00200060004010B5EFF33A
:109860000384103C0C4B64B24FF0840C53F824007A
:1098700083689A7802F003029A701A7983F804C018
:109880000421FFF707FDC034044B53F824206FF385
:10989000104243F8242010BDD00B0020006000408F
:1098A00002690023F0219370D17290F82A10C269E6
:1098B000036280F8303080F82C10426218467047FE
:1098C0004160027200207047C0E90E3241630020FF
:1098D000704700BFC368044A9B1AB3FA83F35B095D
:1098E0000B700020704700BF4332495310B5026926
:1098F0000023F02193709370D17290F82A100268BF
:1099000080F82C1004469169C0696062236284F873
:109910003030E36021B18B6808681B6A9847226881
:1099200053691BB19A681868136A9847EFF310815E
:10993000012383F310882368074A1C78D2F80001BA
:109940004FF00043E3400343C2F80031D2F8003146
:1099500081F31088002010BD006F0440036859692E
:10996000A1B190F82D3070B5044603F0FF0563B93E
:109970008A68038C96680868A1692A46B047E2693C
:10998000C4E90852012384F8333070BD704700BF2A
:1099900038B590F808C080F82E30BCF1010FC0E94E
:1099A0000612054647D090F82AC085F82BC0002340
:1099B00085F82D3085F82F3085F8313085F8333033
:1099C00095F82D1085F82C30C5E9082311B1012335
:1099D00085F831302A682B695269B42199706AB1CF
:1099E000526800211268997095F82D40FCB94FF02B
:1099F000006111602321B42299729A7095F8302089
:109A00001AB95122DA72002038BD0022BCF1010FD0
:109A100085F8302019D0012295F82910D9700CF161
:109A2000FF3C85F82BC085F82C20002038BD116044
:109A300011495160DEE7436880F82AC000215B00CD
:109A400080F8291080F82830AFE72846FFF786FF16
:109A500095F82A3095F82C20012B07D1013295F882
:109A600028102B6995F82BC0D2B2D7E701322B69A9
:109A700095F82BC0D2B2CFE7123A010038B590F872
:109A800008C080F82E30BCF1010FC0E9061205466F
:109A900047D090F82AC02A620023012185F82D10B2
:109AA00085F82F3085F8313085F8333085F82C3043
:109AB0006B6295F82D3085F82BC00BB185F831100D
:109AC0002A682B695269B42199706AB152680021E1
:109AD0001268997095F82D40FCB94FF00061116043
